:020000021000EC
:1090000000600020BD920100E5920100E79201009E
:10901000E9920100EB920100ED92010000000000D6
:10902000000000000000000000000000EF920100BE
:10903000F192010000000000F3920100F59201009E
:1090400091B40100F79201009DB80100F792010070
:10905000F79201000000000051B70100F7920100F3
:10906000F7920100F7920100F7920100F7920100D8
:10907000F7920100F7920100F7920100F7920100C8
:10908000F7920100F9A50100F7920100F7920100A3
:10909000F7920100F792010041CD0100F792010023
:1090A000F7920100F79201000000000000000000AC
:1090B000F7920100F792010000000000000000009C
:1090C00000000000000000000000000000000000A0
:1090D0000000000000000000000000000000000090
:1090E0000000000000000000000000000000000080
:1090F0000000000000000000000000000000000070
:10910000000000000000000000000000000000005F
:10911000000000000000000000000000000000004F
:10912000000000000000000000000000000000003F
:10913000000000000000000000000000000000002F
:10914000000000000000000000000000000000001F
:10915000000000000000000000000000000000000F
:1091600000000000000000000000000000000000FF
:1091700000000000000000000000000000000000EF
:1091800000000000000000000000000000000000DF
:1091900000000000000000000000000000000000CF
:1091A00000000000000000000000000000000000BF
:1091B00000000000000000000000000000000000AF
:1091C000000000000000000000000000000000009F
:1091D000000000000000000000000000000000008F
:1091E000000000000000000000000000000000007F
:1091F000000000000000000000000000000000006F
:1092000010B5054C237833B9044B13B10448AFF3C0
:1092100000800123237010BDD01100200000000049
:1092200080DE010008B5034B1BB103490348AFF3CF
:10923000008008BD00000000D411002080DE010085
:10924000A3F5803A704700BF174B002B08BF134BA4
:109250009D46FFF7F5FF00218B460F461348144A41
:10926000121A03F001FF0E4B002B00D098470D4B54
:10927000002B00D098470020002104000D000D486D
:10928000002802D00C48AFF3008003F0BBFE2000A2
:10929000290003F0DDF903F0A1FE00BF0000080083
:1092A000000000000000000000600020D01100203D
:1092B0004C1A002000000000000000000649074A88
:1092C000074B9B1A03DD043BC858D050FBDC01F070
:1092D00009FEFFF7B9FF000040DF01001811002070
:1092E000D0110020FEE7FEE7FEE7FEE7FEE7FEE71F
:1092F000FEE7FEE7FEE7FEE7F0B595B01D46164631
:1093000008460C4601F000FD1A9B0D93CDE9086557
:1093100000252B46082205A920460A958DF82C50D9
:109320000C9501F00DFD079B0293069B03939DF89E
:1093300014308DF8115003F00302012A1DD1BDF83D
:109340001420059DC3F3C203C2F383168DF81030B9
:10935000B20008230EA9204601F0F2FCC5F39525C2
:1093600008AB0093324602AB0EA9284600F0AAFBD8
:10937000204601F0CDFC15B0F0BD022AF8D1BDF8B1
:109380001650C3F3C203C5F389158DF810300827B2
:10939000082D2E4628BF08263B4632460EA92046F9
:1093A00001F0CEFCAD1B08AB02AA31460EA8374433
:1093B00000F0ECFB002DEBD1DAE70000014B0122BD
:1093C0001A7070472D1200207047000070B50E4DC6
:1093D00006460FCD88B06C460FC495E80F00002EEE
:1093E00084E80F00094A0A484FF0060308BF00222C
:1093F0006946009301F0D4FF08B100F097FD054BDA
:109400001E7008B070BD00BFA8D30100BD9301005D
:1094100018110020EC11002007B5044B0093044AFA
:109420004023FFF769FF03B05DF804FB35940100AA
:10943000ED11002038B50D480D4C0E4D0023237062
:109440000378EB5CD2B263B1043002F0D7FE08B10E
:1094500000F06CFD084B1A7812B12378002BFBD07A
:1094600038BD0C3002F06AFCF1E700BF1811002093
:109470002D120020C8180020EC11002008B5084863
:10948000084A0378D35C3BB1043002F01BFEBDE810
:1094900008400020FFF79ABF0C3002F0D5FBF6E73A
:1094A00018110020C81800200120FFF78FBF00000E
:1094B00008B5FFF7F9FF0448042100F06BFA034BED
:1094C00001225A7108BD00BF28DF01002C110020C5
:1094D0000378024613F0040006D003F003000128CD
:1094E00003D0022809D0012070470B68128802338C
:1094F000C2F3831213440B6070470B685288023327
:1095000003EB92130B60EEE72DE9F04FDFF81CA19F
:1095100087B00F4600230446861C0DF10700154650
:109520008DF8073000F0ECFEDAF804203A60DAF843
:10953000083003F580739B1A0AF21C470AF5836909
:109540000AF21448B3421AD30020002D69D004F067
:109550000F039B0143F0050363F30F00DAF80430B7
:10956000DAB2033233444AF822009DF80700CAF801
:10957000043000F0E9FE012007B0BDE8F08F0121C2
:10958000384601F0EEF8484601F003F9404601F094
:1095900000F9DAF808000290C0B203300AEB80004C
:1095A00002A9FFF795FF029B30BBDAB20AEB8202F9
:1095B000D16803919A1C0133DBB20AEB8303029258
:1095C000D3F80CB001F00303012B22D0022B15D0ED
:1095D0008346404601F0E0F810B1029BCAF808301B
:1095E0005946384601F0BDF8DAF80830DAF80420B8
:1095F00003F580739B1AA5E7D8B2CEE7BDF80E300D
:10960000C3F3891303334FEA1B4B02EB930302931B
:10961000DFE7BDF80C30C3F383134FEA1B4B134451
:10962000F5E7A40544F0060098E700BF001300200A
:10963000064B074810B500221A7001F01EFB0446C5
:1096400010B9044801F0AAFB204610BD0013002009
:10965000A4DE0100FCD3010030B50A4C71B10A4A06
:109660000A49121BD20800239A4201D1002030BDC2
:1096700031F82350854202D00133F5E7034654F810
:109680003300F4E7B8DE010028DF0100D01100202C
:10969000094B013903EBC000032909D8DFE801F0C9
:1096A0000A02040604207047007970474079704729
:1096B0000020704702207047B8DE0100034BD3E959
:1096C0000130C31A58425841704700BF00130020B0
:1096D0002DE9F04186B0FFF7F1FF0546002840F084
:1096E000ED80774CC4F81804BFF34F8FA368029342
:1096F000DBB2033304EB830002A9FFF7E9FE029B10
:1097000018B1D4F81824002A5AD0DAB2991C0133BF
:1097100004EB8202DBB204EB8303D268DB680493C0
:1097200002F00303022B0392029154D1BDF80E30D4
:109730006448C3F38917502F3E4628BF502606F1D0
:10974000080166F38F13C1F30901ADF80E3001F083
:10975000ACFA0546002800F09C8001F0D5FA002301
:10976000082203A9284601F0E1FA0299CB43DBB2B3
:109770000133C9B20331B6EB830F4FEA830204EB26
:10978000810125D95FFA82F80823A6EB080628464E
:1097900001F0CCFAF6B208F108034B4903F0FC03E0
:1097A0003246284601F0C2FA029B033703EB9707C3
:1097B0000297D4F81834002B43D1D4F8106453E046
:1097C00062689A4294D8A260284606B0BDE8F0814B
:1097D00008233246E5E7012B5BD1BDF80C30394850
:1097E000C3F38311062928BF062161F389130231CF
:1097F00001F00F018900ADF80C3001F056FA054672
:10980000002846D001F080FA0023082203A9284648
:1098100001F08CFA0026BDF80C20C2F38312B300CD
:10982000964203F10803C4D202994A1CC9B203311B
:10983000029204EB81010422284601F077FA0136F6
:10984000E9E7284601F064FAFFF738FF80F00105E8
:10985000EDB2B9E7F3685B7923B1336829461B6839
:1098600030469847F3681E68002EF3D1284601F071
:109870004FFA0DF107008DF8076000F041FDD4F8B4
:1098800018340BB9029BA3609DF8070000F05CFD43
:10989000DAE7D4F8104454B90C4B0D480D49C01AFE
:1098A000C008000440F0020000F05CF8CCE7236838
:1098B00020469B689847E3681C68ECE7002583E72F
:1098C00000130020A4DE01000C130020B8DE01000C
:1098D000E0DE0100E5D301002DE9F34704460E4622
:1098E000924601A9012218469946FFF70DFE1B4F2B
:1098F00010B3019D4FF00008AA1CC84508EB0201F7
:1099000023D11748002100F009FF80F31000000464
:1099100040EA1440E4006B1C04F03804DBB2EDB202
:1099200044F0010407EB8303033544EA881444EA56
:109930008624D86047F825403B781BB1FFF7C8FE66
:109940000028FBD102B0BDE8F087C9B207EB810166
:109950005AF82830CB6008F10108CEE70013002048
:109960001C17002000231A46FFF7B6BF07B50123D6
:10997000019201AAFFF7B0FF03B05DF804FB07B541
:10998000CDE9002302236A46FFF7A6FF03B05DF886
:1099900004FB000030B51349D1F810440346002001
:1099A00022464AB9DC682071D1F8104454B9C1F894
:1099B0001034DB681A6030BDD268157985420AD050
:1099C0001268EEE7E468DA6824681460D1F81024BD
:1099D000D2681360EFE701300A28E1D14FF0FF3081
:1099E000E9E700BF0013002038B5084B0125D3F884
:1099F00010441D7004B938BDE3685D7123682046CA
:109A00005B689847E3681C68F4E700BF0013002018
:109A100073B5C38804460D4633B1144A0092144905
:109A2000144A284600F01DFF217A05291CD0637ACC
:109A30004BB1A088FFF72CFE0F4B104953F82020A4
:109A4000284600F00EFF227A0D4BA08853F82260C2
:109A50000021FFF701FE0B4903463246284602B0BB
:109A6000BDE8704000F0FDBE02B070BD28D401001A
:109A700010D4010008D4010094D401002DD40100B9
:109A8000B8D4010030D4010010B5037A052B0C4680
:109A90000FD0437A23B1084A0849204600F0E1FE7E
:109AA0000749204600F0DDFE2046BDE8104000F0EA
:109AB000CDBE002AF8D0F3E728D401002DD4010050
:109AC00025D401002DE9F04385B01F460C9D0023ED
:109AD00095F80C902B7306460C469046294638465E
:109AE000FFF796FFB8F1060F09D8DFE808F0041277
:109AF000181F283340003146284600F0B2FE0022ED
:109B000029463846FFF7C0FF85F80C9005B0BDE840
:109B1000F08322683146284600F0A3FEEFE7D4E93F
:109B200000233146284600F09CFEE8E7A368009336
:109B30003146D4E90023284600F093FEDFE7E368CE
:109B40000193A36800933146D4E90023284600F02E
:109B500088FED4E723690293E3680193A368009326
:109B60003146D4E90023284600F07BFEC7E763694D
:109B7000039323690293E3680193A368009331463A
:109B8000D4E90023284600F06CFEB8E708292DE947
:109B9000F84F80460E4617461C463DD8002593F8E0
:109BA0000C901D7319461046FFF732FFDFF884A0B2
:109BB000DFF884B0AE4231D918F805205946204666
:109BC00000F04FFE0135082DF4D11C491C4DDFF883
:109BD00074A0204600F045FE4FF0000B5E4524D9EE
:109BE00018F80B207E2A1ED8511C174BC9B2C95C2D
:109BF00011F0970F08BF2E225146204600F031FE8B
:109C00000BF1010BBBF1080FE8D1012221463846C8
:109C1000FFF73AFF84F80C90BDE8F88F51462046D4
:109C200000F01FFECEE72E22E6E72946204600F090
:109C300018FEE5E740D401003AD4010044D4010005
:109C400042D4010046D4010078DD0100C30710B5FD
:109C500007D4F023054A4008145C234019431154EB
:109C600010BD0901C9B20F23F4E700BFE8170020B7
:109C700030B5094B1C78094B0246196800239C42F9
:109C800001DC002030BD11F83350954201EBC300D8
:109C9000F8D00133F3E700BFB8170020F817002011
:109CA00070B504460D46FFF7E3FF30B1436823B1BA
:109CB00029462046BDE87040184770BD034B044854
:109CC00019680022490800F02CBA00BFBC17002018
:109CD000C017002010B5C0B2FFF7CAFF04460078D5
:109CE00001F02CFD63785A1E53425341834208D140
:109CF000044BD3E90023134303D1BDE81040FFF721
:109D0000DDBF10BDE017002037B54308374AD35CEC
:109D1000C2074CBF1B0903F00F0304460D46042B7A
:109D200025D8DFE803F003262F3C4000F9B10121DC
:109D3000FFF78CFF00230DF107008DF8073000F0CE
:109D4000DFFA0120A4F12003C4F12001284A20FAFF
:109D500001F100FA03F30B43A040D2E90041204394
:109D60000B43C2E900039DF8070000F0EDFA03B0D1
:109D700030BD002918BF0221204603B0BDE83040A5
:109D8000FFF764BF49B10321FFF760FF01212046BF
:109D900003B0BDE83040FFF783BF0121ECE70029A5
:109DA000E5D10421E8E709B10321E5E7FFF74EFF1C
:109DB00029462046FFF774FF0DF107008DF8075084
:109DC00000F09EFA0120A4F12003C4F12001084A0A
:109DD00020FA01F100FA03F30B43A040D2E900415D
:109DE00024EA000021EA0303BBE700BFE8170020D4
:109DF000E01700202DE9F041124E134F0024337874
:109E0000A34208DC114BD3E90023134318D0BDE86B
:109E1000F041FFF753BF3D6805EBC40815F8340067
:109E200001F08CFC98F801305A1E53425341181A25
:109E30004142414115F83400FFF766FF0134DEE787
:109E4000BDE8F081B8170020F8170020E0170020C7
:109E5000092AF7B505460C4616463ED901F0A6FB81
:109E6000E8B11F4B1F481D601F4B204F1C70204B3B
:109E7000002110221E6003F0F7F81E4B0020002185
:109E8000C3E90001013CE4B20326FF2C0DD11A4ABC
:109E90001A48002103B0BDE8F04000F037B901F0E6
:109EA00047FB0028DDD003B0F0BD9DF8063015F863
:109EB00034008DF8046005EBC40223F007038DF82D
:109EC000063001A993788DF805303A4601F078FB09
:109ED000013CE4B20028D8D0E5E70720E3E700BF63
:109EE000F8170020E8170020B8170020D59C0100C3
:109EF000BC170020E0170020F59D0100D8D4010018
:109F000070B5084D084E00242B789C4201D30020E8
:109F100070BD3368012113F8340001F0C9FB01342E
:109F2000F2E700BFB8170020F81700201FB5002186
:109F3000039001AA44F20100CDE9011100F004F8F8
:109F400005B05DF804FB000038B572B6FFF74CFDB4
:109F5000FFF7BEFB0028FBD1104B114C114D1249ED
:109F6000E41AE408240444F00100FFF7FBFCD5F8F0
:109F7000F030DB0700D500BE0C4944F00200FFF7CB
:109F8000F1FCBFF34F8FEA68094B02F4E062134320
:109F9000EB60BFF34F8F00BFFDE700BFB8DE0100ED
:109FA000E0DE010000ED00E0DCD40100E8D40100B7
:109FB0000400FA0510B5D0E90243D1E90202A0423B
:109FC00072EB03032CBF0120002010BD08B50A4826
:109FD00000F0FBFA094AD2E90031C018084BD3E976
:109FE000002341F10001904271EB030303D210F111
:109FF000807041F1000108BD3411002000180020DC
:10A000007818002037B505460C460A4801A900F02B
:10A0100010FB60B10570446001A9064800F033FBF5
:10A0200018B1054800F0D6FA002003B030BD042076
:10A03000FBE700BF641800203411002038B5184B2E
:10A040001B78044613B90025284638BD0028FAD0ED
:10A05000037F03F0FF05002BF5D0FFF7B7FFD4E92E
:10A060000223904271EB030314D3236903B92377CE
:10A07000D4E90530984721690029E4D0237F03F013
:10A08000FF05002BDFD0D4E902325B1842F1000259
:10A09000C4E902320348214600F0A3FED4E700BF22
:10A0A0000818002004D5010013B5114B1149186898
:10A0B000019008231048582200F0A8FA044698B9E5
:10A0C0000E4A0F4801A900F061F9044660B90C4836
:10A0D000012100F05BFA01230A4A0948194600F001
:10A0E000B7F9094B01221A70204602B010BD00BF1B
:10A0F00000D501000C180020641800206DA101009B
:10A1000034110020FFFF7F00081800203AB10368D7
:10A110005A614A1E5142514119610020704707207F
:10A12000704738B5037F04460D4683B98261FFF757
:10A130004DFF2369281841F10001C4E9020103B170
:10A14000256121460020BDE83840FFF75BBF0020B5
:10A1500038BD0023014603770120FFF753BF0000FD
:10A16000014800F032BA00BF341100202DE9F34756
:10A17000064600F014FA40B1594AD2E9003113F111
:10A18000807341F10001C2E900310021304600F046
:10A1900016FA38B1534C236823B12068FFF74EFFFD
:10A1A000002323600121304600F009FA20B1FFF7B7
:10A1B0000DFF4D4BC3E900014C484A4D4C4C4D4FEF
:10A1C00001A900F070FA002842D1DFF82481454C43
:10A1D000DFF82491404600F01AFE2368002873D06F
:10A1E0007BB12368D0E90252D3E902138D4272EBAE
:10A1F00003032AD223681B7F1BB12168404600F06D
:10A20000F0FD404600F0FDFDD0E9027A0546FFF77B
:10A21000DDFE3F1A6AEB010A012F7AF1000346DBEB
:10A22000B7F5350F41D3FFF79BFF344A02444FF493
:10A2300096030021484600F02FF900283FD12368FB
:10A2400013B9304600F0FCF8256002B0BDE8F08795
:10A250000378012B1ED0022B09D14FF000082046B5
:10A2600000F0CFFD002837D080F81C80F7E743B915
:10A2700043681A7F2AB901221A774168204600F004
:10A28000B0FD01A9194800F039FA01A9174800F0FA
:10A290000AFA98E741682B68994202D100232B60A3
:10A2A000EFE7204600F0B6FDEBE7AA68BFE7002124
:10A2B000484600F079F92846FFF7C0FE01E00D2876
:10A2C000F9D00023236085E7002BBED1304602B0D1
:10A2D000BDE8F04700F0B8B801233B70D1E700BFFC
:10A2E0000018002080180020781800206418002032
:10A2F00004D501000818002034110020FFFFB4002D
:10A3000070B5EFF3108672B60C4A946801239CB9BD
:10A3100093600B4B0B4DD3F8801029401160C3F8AC
:10A320008050D3F8841051604FF0FF32C3F884207E
:10A33000047006B962B670BD0370FAE78418002095
:10A3400000E100E0FC06FFBD10B5084B9A685AB169
:10A3500050B9EFF3108172B6054A1C6814605C684E
:10A360005460986001B962B610BD00BF8418002027
:10A3700000E100E00346405882B028B100225A5064
:10A380005B580193019B012002B0704738B5244C03
:10A39000437944F82320234C234A121B234C04EB1B
:10A3A000C303D2081B79120433B142F002002049E2
:10A3B000FFF7D8FA082038BD03680D88C3F80855A0
:10A3C00090F904308978002B4FEA4111ADBF03F1B9
:10A3D000604303F00F03174D03F56143B9BFC9B2E2
:10A3E000E954C9B283F8001390F90430002B08DB5C
:10A3F00001215D0903F01F0301FA03F30E4941F83F
:10A400002530437904EBC301012544F833000D7175
:10A4100042F003000949FFF7A5FA0020CBE700BF8F
:10A4200098180020B8DE0100F0DE0100901800202E
:10A4300010D5010014ED00E000E100E032D501008C
:10A44000036801221A607047036801225A6070474E
:10A45000F7B504684FF480358D40C4F8085304689C
:10A46000C4F8485301F15004A4000668A4B20027C0
:10A47000375134590194019C046801F5A87122F008
:10A480007F4244F821200268C2F8445313B10368A4
:10A49000C3F8045303B0F0BD2DE9F34799464FF4D8
:10A4A0008038036808FA01F8C3F848830368C3F8E2
:10A4B000088322F07F4502680E46D2F8041502EBAD
:10A4C000860206F15007D2F84035C2F84015BF00A9
:10A4D0000268BFB24FF0000A42F807A05B1AD259D7
:10A4E000009223F07F43012B009A04460BD1264BA8
:10A4F0004FF4806043F001039847236843F807A0B6
:10A50000DB590193019B2368D3F80475C3F8448396
:10A51000EB1B23F07F43012B06F5A876236819D1A6
:10A52000013543F82650184B4FF4806043F0010387
:10A5300098472368D3F804359F4209D12368C3F8AC
:10A54000448323680020C3F8048302B0BDE8F08789
:10A550000D20FAE743F826502068D0F804156A1A4F
:10A56000013AC9F1FF1322F07F4203F57F43934282
:10A57000EED3002AE2D1013540F826502368D3F803
:10A5800004359942D9E700BF50D501000268022383
:10A59000C2F8443311B10268C2F80433704700684E
:10A5A0004FF48271FFF7E6BE4FF4803303FA01F1F6
:10A5B0000368C3F848130368C3F8081370475031A1
:10A5C0008900006889B2FFF7D5BE0368D3F8040597
:10A5D0007047000090F90430002B09DB5A09012173
:10A5E00003F01F0301FA03F34032024941F822301D
:10A5F000704700BF00E100E0024B034A1B6810688F
:10A60000184700BF981800209018002030B5054664
:10A6100059B1B2FBF3F403FB1424A0B238B9C5E975
:10A620000010A860AA81EB8130BD0E20FCE7092054
:10A63000FAE737B550E8013F9DB2C48925448489C3
:10A64000A54228BF2D1B0489A54202BFBFF32F8F4F
:10A65000002207E0C5EA030540E80154002CE9D1D7
:10A660004FF001028DF803200193019A0A609DF8D2
:10A67000031001F0FF0321B1006810FA82F003B06B
:10A6800030BD1846FBE70A884B889A4209D150E84A
:10A69000012FC2EA024240E80123002BF7D101203A
:10A6A00070470020704737B550E8023F1FFAA3F506
:10A6B000C488A54202BFBFF32F8F00220DE0C489DA
:10A6C00025448489A54228BF2D1BC3EA054540E8DF
:10A6D0000254002CE8D14FF001028DF803200193C1
:10A6E000019A0A609DF8031001F0FF0321B1006890
:10A6F00000EB124003B030BD1846FBE70A884B88D8
:10A700009A4209D150E8022FC2EA224240E80223CD
:10A71000002BF7D1012070470020704710B5034689
:10A7200053E8000F0A4643E8002494F0000FF7D1E5
:10A7300010BD10B5034653E8002F42EA010043E87C
:10A74000000494F0000FF6D110BD10B5034653E895
:10A75000000F00EA010243E8002494F0000FF6D154
:10A7600010BD10B5034653E8002F02EB010043E88B
:10A77000000494F0000FF6D110BD10B5034653E865
:10A78000002FA2EB010043E8000494F0000FF6D183
:10A7900010BD0121FFF7CDBF0021FFF7D6BF10B5D7
:10A7A00090B1D0E9012301689B1ADBB20A60013B3A
:10A7B000DBB2FF2B026802D10020107110BD1168BE
:10A7C0004C1C14600B70F2E70E20F7E737B5044617
:10A7D00000250DF107008DF80750FFF791FD226865
:10A7E000616813688B4210D9591E116013F8013C3F
:10A7F000228AE56802FB03552268A36811685B1A88
:10A800001179DBB2994238BF13719DF80700FFF749
:10A810009BFD284603B030BD37B5054600230DF13A
:10A8200007000C468DF80730FFF76AFD2A681368A9
:10A83000591C1160E968641A298AB4FBF1F41C7090
:10A840009DF80700FFF780FD03B030BD10B58268AA
:10A8500004462AB143690168006998470023A36050
:10A8600010BD0EB403B5039921B104AB01AA019345
:10A8700000F076F802B05DF804EB03B070470A29E7
:10A8800038B504460D4602D10D21FFF7F8FFA36845
:10A890002268591CA160D554D4E901329A4204D3EC
:10A8A0002046BDE83840FFF7D1BF38BD2DE9F84F4D
:10A8B0009846DDE90A43154682460F460A464FF0A0
:10A8C0000109AA420FD2C14538BFC14613F0010B9E
:10A8D00001D16CB900240126B8F1010F1BD908F190
:10A8E000FF386E43F8E709F10109B2FBF5F2E8E73A
:10A8F0009B070ED5B8F1000F0CBF30262026A145CE
:10A90000E9D2013C31465046FFF7B9FF002CF6D1A1
:10A91000E0E72026F3E7B7FBF6F39D42E1D9DFF845
:10A920003C80B7FBF6F3504618F8031006FB13778C
:10A93000FFF7A5FF3346AB42B6FBF5F6F1D2BBF10C
:10A94000000F02D00CB1A14501D3BDE8F88F202142
:10A950005046013CFFF793FFF4E700BF56D50100D6
:10A960002DE9F74F054617468846002900F03E813D
:10A9700018F8011B49B92B7B002B00F037812846C2
:10A9800003B0BDE8F04FFFF761BF252940F0B78065
:10A99000002698F800302D2B424608F1010823D0FC
:10A9A000302B24D02B2B25D000242A2B02F101019F
:10A9B00023D13B681A1D3A601B680A461C44137871
:10A9C0002E2B26D101324FF0000A104610F8011B41
:10A9D000A1F1300CBCF1090F1DD80A2303FB0A13A7
:10A9E000A3F1300A0246F0E746F00106D1E746F04F
:10A9F0000206CEE746F00406CBE711F8013CA3F1CE
:10AA000030000928DBD80A2202FB0434303C0A4615
:10AA1000CBE74FF0000A12F8011B01F0FB00682899
:10AA20009046F8D0782909D86F290CD8632962D0CC
:10AA300022D8252963D0582900F0888098F8003062
:10AA4000002B95D197E770390829F7D801A353F85F
:10AA500021F000BFC7AB01003DAA01003DAA0100E3
:10AA60005DAB01003DAA01003BAB01003DAA010026
:10AA70003DAA01004DAB0100642901D06929DDD157
:10AA80003A68111D3960D2F8009089EAE972A2EBA8
:10AA9000E9724FF0010B092A35DCD34538BFD346A4
:10AAA0002CB1B9F1000F01DB720700D5013CB307EF
:10AAB00002D5BAF1000F03D0F00701D44CBB00243B
:10AAC000B9F1000F2DDAC9F100092D212846FFF751
:10AAD000D6FE06F00302022A04D1BAF1000F01D11A
:10AAE0001CBB0024CDE9004653460A2249462846AD
:10AAF000FFF7DCFEA2E73B681A1D3A60197828468A
:10AB0000FFF7BDFE9AE70A230BF1010BB2FBF3F24C
:10AB1000C1E7A345D4D220212846013CFFF7AFFE70
:10AB2000CCE77107D5D52B21D0E7A345DAD2302168
:10AB30002846013CFFF7A3FED2E73968CDE900467D
:10AB40000A1D3A6053460A220968D0E739680A1D8F
:10AB50003A60CDE9004653461022F5E73B681A1DDE
:10AB60003A6016F00106D3F8009024D1B9F1000F35
:10AB700003D0484602F080FA0646B4421DD809F1D7
:10AB8000FF3919F8011F00293FF458AF2846FFF795
:10AB900076FEF6E728460136FFF771FE19F8061033
:10ABA0000029F7D1A642BFF449AF20212846013C35
:10ABB000FFF765FEF6E70026F0E720212846013C76
:10ABC000FFF75DFED9E73B681A1D3A603021284641
:10ABD0001C68FFF754FE78212846FFF750FE00223C
:10ABE0000823CDE900322146102280E703B0BDE8FA
:10ABF000F08F00BF2DE9F84FB0F806A04579D2F8E4
:10AC000000B09DF828900AFB05F5043D88460BEB43
:10AC10000301A94203F1040488BFA5EB030BB4FBB5
:10AC2000FAF607460AFB1644C2F800B04EB9AAEB82
:10AC300004055D4528BF5D46BBF1000F04D1BDE8AA
:10AC4000F88F3F68013EF1E7043408EB06003C440E
:10AC50002A46B9F1000F0DD02146ABEB050B02F0EF
:10AC6000F5F9DA452E443F6855464FF0000428BFF9
:10AC70005D46E1E701462046EFE7FFF790BDF8B5F6
:10AC800046790146721E0546002393422D6803D380
:10AC90000024A64202D8F8BD0133F6E70F68284623
:10ACA000FFF7BAFD01343946F3E72DE9F843CD1C2F
:10ACB000068A0746FFF78AFD043E35440446B5FB85
:10ACC000F6F5F0B14FF48073EDB28380C680013D9C
:10ACD000076081464FF00008A84512D23846FFF7BA
:10ACE00075FD064648B163790133637108F10108C7
:10ACF000C9F8000007608146EEE72046FFF7BFFF76
:10AD000034462046BDE8F88301210430FFF729BD11
:10AD100010B5012104460430FFF72FFDC0B220B961
:10AD20002046BDE81040FFF7AABF10BD1FB5039233
:10AD30000022009203AAFFF75DFF05B05DF804FB57
:10AD40001FB503920122009203AAFFF753FF05B03B
:10AD50005DF804FB41DF7047064B10B500241C7002
:10AD6000054B1C60BFF35F8F0449054800F024F8D1
:10AD7000204610BDA4180020A818002070D501009E
:10AD80009C18002008B501F0C1FF18B1BDE80840CB
:10AD9000FFF7E0BF20BF40BF20BF08BD826800238F
:10ADA000936082681361826853618268D3608268AD
:10ADB000536082681360704701600B6843604A68A3
:10ADC000934204BF002343607047436843B1026865
:10ADD00091680B4443605268934204BF0023436070
:10ADE000704770B5446806460D46206818B1B368D0
:10ADF0002946984718B923682B60256070BD2468E0
:10AE0000F3E74368186808B102681A60704743683E
:10AE1000186870474368186800B97047884203D1C2
:10AE200002681A600120704703460068F4E70000DA
:10AE300010B50D49A1F59472914201D800200FE0A0
:10AE40008C1AE30F03EBE4035B1002EBC30452F82C
:10AE50003330834205D802D204F10802ECE760687F
:10AE600010BD2146E8E700BF7CDA010008B5FFF716
:10AE7000DFFF024B002808BF184608BD3FD901007C
:10AE8000BFF34F8F0549064BCA6802F4E0621343D3
:10AE9000CB60BFF34F8F00BFFDE700BF00ED00E0C8
:10AEA0000400FA054FF08053D3F83001082804D08D
:10AEB000A0F10E035842584170470120704700002E
:10AEC0004FF08053D3F83021082A06D1D3F834311B
:10AED000032B02D8024AD05C70470020704700BFA5
:10AEE0007CDA010008B54FF08053D3F830210E2AE8
:10AEF00001BFD3F844324FF08042C3F34233C2F86B
:10AF00003C35FFF7CFFF40B14FF080430022C3F83C
:10AF10000C21C3F81021C3F83825FFF7C3FF002820
:10AF200046D04FF080526B4BD2F80414C3F8201572
:10AF3000D2F80814C3F82415D2F80C14C3F8281555
:10AF4000D2F81014C3F82C15D2F81414C3F8301525
:10AF5000D2F81814C3F83415D2F81C14C3F84015ED
:10AF6000D2F82014C3F84415D2F82414C3F84815B5
:10AF7000D2F82814C3F84C15D2F82C14C3F8501585
:10AF8000D2F83014C3F85415D2F83414C3F860154D
:10AF9000D2F83814C3F86415D2F83C14C3F8681515
:10AFA000D2F84014C3F86C15D2F84424C3F87025C5
:10AFB000FFF786FF18B1484BFB22C3F81825FFF7AF
:10AFC0007FFF70B14FF080414FF08053D1F8E42EF5
:10AFD000D3F8583222F00F0203F00F031343C1F8E5
:10AFE000E43EFFF75FFF48B14FF08043D3F8002401
:10AFF000D10744BF6FF00102C3F800244FF0805323
:10B00000D3F830310E2B01BF4FF08042D2F8E43E2E
:10B0100043F00F03C2F8E43E4FF01023D3F80022B0
:10B02000002A03DBD3F80422002A23DA2B4B012267
:10B03000C3F80425D3F80024002AFBD04FF01022D7
:10B040001221C2F80012D3F80024002AFBD04FF0DE
:10B0500010231222C3F80422204BD3F80024002A24
:10B06000FBD00022C3F80425D3F80024002AFBD02B
:10B07000FFF706FFD3F80022D20703D4D3F8043237
:10B08000DB0722D5154B0122C3F80425D3F8002491
:10B09000002AFBD04FF010220021C2F80012D3F892
:10B0A0000024002AFBD04FF010230022C3F8042212
:10B0B0000A4BD3F80024002AFBD00022C3F8042551
:10B0C000D3F80024002AFBD0D2E7054B054A1A60CA
:10B0D00008BD00BF00C0004000F0004000E001409B
:10B0E0003C1100200090D003054A4FF0A043105CB3
:10B0F000D3F8043523FA00F0C04300F00100704794
:10B1000080DA0100044B1A5C012393404FF0A04207
:10B11000C2F80C35704700BF80DA0100044B1A5C9E
:10B12000012393404FF0A042C2F80835704700BF9A
:10B1300080DA010008B50020FFF7F0FF0120FFF7DB
:10B14000EDFF0220FFF7EAFFBDE808400320FFF70C
:10B15000E5BF08B50020FFF7D5FF0120FFF7D2FFBC
:10B160000220FFF7CFFFBDE808400320FFF7CABF6A
:10B17000074A4FF0A041105CD1F80435012282400B
:10B1800022EA03001340C1F80805C1F80C357047E6
:10B1900080DA01000B2809D00C2809D0182809D022
:10B1A00019280CBF03204FF0FF3070470020704774
:10B1B0000120704702207047C20708B501460CD530
:10B1C0004FF0A0430322C3F83427C3F83827C3F84D
:10B1D0003C27C3F84027FFF7ADFF8B070AD54FF098
:10B1E000A0430C22C3F82C27C3F83027C3F86027EC
:10B1F000C3F8642708BD000038B5074C051E04F1EC
:10B20000080318BF1C4623682BB11A6822605B68CC
:10B2100028469847F7E738BDB418002020B9054BF9
:10B2200001225A70FFF7E8BF012802D1014A90704D
:10B23000F8E77047AC18002020B9034B01225A7080
:10B24000FFF7DABF704700BFAC18002038B50E4CCE
:10B250002378B3B90D486360A3602361E36000F015
:10B26000E7F8054601F052FD08B900F0EDF80123BA
:10B270002370074BD3F800340BB10123A370284689
:10B2800038BD8525F5E700BFAC1800201DB20100D0
:10B290000000014037B50D4C00230DF107008DF87B
:10B2A0000730FFF72DF8E368013BE360E36833B94B
:10B2B000074BD3F8005415B900F0D8F8A5709DF8E5
:10B2C0000700FFF741F803B030BD00BFAC18002005
:10B2D00000000140012813B50CD0032820D038B954
:10B2E000134B0122C3F88020BFF34F8FBFF36F8F42
:10B2F00002B010BD0F4C00230DF107008DF8073090
:10B30000FEF7FEFF23780BB9FFF7A0FFE3689DF877
:10B3100007000133E3600123A370FFF715F8E7E7A7
:10B3200000F092F802B0BDE81040FFF7B3BF00BFD5
:10B3300000E100E0AC1800201FB503788DF8003064
:10B340004368019383688DF80830C368054A039306
:10B35000054B684653F8213052F82110984705B044
:10B360005DF804FBC0180020C41800201FB5037846
:10B370008DF800304368019383688DF80830C36806
:10B38000054A0393054B684653F8213052F82110C3
:10B39000984705B05DF804FBC0180020C4180020D1
:10B3A000F0B5194B90F800C091F81DE043F82C203F
:10B3B000164B16460A6943F82C20154B03F80CE08F
:10B3C0000C4607460FCC89B06D460FC594E80F00B8
:10B3D00085E80F00CDF810C0BEF1000F09D0002E97
:10B3E0000C4A694608BF3246381D00F09BFD09B083
:10B3F000F0BD002E084A694608BF324607F10C002E
:10B4000000F060FBF3E700BFC4180020C018002064
:10B41000C818002039B301006DB3010000F180406D
:10B42000002382B0036003680193019B02B0704760
:10B43000044B0246187918B91A6001221A71704734
:10B4400085207047CC180020074B1A68D20704D417
:10B45000C02283F8002301221A604FF080430122AA
:10B46000C3F81825704700BF00E100E04FF08042AC
:10B4700008B50223C2F808334FF48270FFF7CEFFFD
:10B480000123D360D2F81834DB03FBD408BD0000DD
:10B4900010B54FF08042D2F8003153B14FF48070B4
:10B4A000FFF7BCFF0123C2F808330B4B00201B68D9
:10B4B00098474FF08042D2F8043163B14FF4827064
:10B4C000FFF7ACFF0223C2F80833034BBDE810407E
:10B4D0001B680120184710BDCC18002000F18040E7
:10B4E00000F5C040002382B0036003680193019B14
:10B4F00002B07047800000F1A040D0F8002722F48D
:10B500004032C0F80027D0F8003743EA0143C0F8C2
:10B5100000377047054B4FF0FF32072843F82020D3
:10B5200084BFC01880F84820704700BFD41800209E
:10B5300010B51A4C94F858306BBB4FF0FF3222FA1A
:10B5400003F1C90748BFE11803F1010348BF81F8BF
:10B550003020202BF3D10021C8B20131FFF7DAFFF0
:10B560000C29F9D1042200210D4801F07DFD0D4B7D
:10B57000C02283F8062340221A604FF4BE70FFF702
:10B58000ADFF094B4FF00042C3F80423012384F8B8
:10B590005830002010BD0820FCE700BFD418002060
:10B5A0002819002000E100E000600040034B93F800
:10B5B0005800003818BF0120704700BFD418002081
:10B5C000F0B5394E331893F93030002B69DA8D78A5
:10B5D000C5F34005002D0BBF082300230C240824CD
:10B5E000A34201D10420F0BD56F82370013743D1A6
:10B5F00037185CB246F8232087F8304015B9F218A6
:10B6000082F848008A78550716D4D70736D58200C5
:10B6100002F1A042D2F8005725F00205C2F8005707
:10B62000224FC50800F0070C012202FA0CF217F8AD
:10B6300005C042EA0C027A558A780D7812F00202AF
:10B6400025D09B0003F1804303F5C0430002D3F8EB
:10B65000102522F4473222F44072C3F810252D043D
:10B66000D3F8102500F4F85005F440352843104372
:10B67000C3F810050020B6E70133B1E74D7800F5B7
:10B68000E0724FF0A047AD0047F82250C8E7083CF1
:10B6900046FA84F494F8500040EA851584F8505036
:10B6A000E8E708209FE700BFD418002028190020F1
:10B6B00038B5204C251895F93020072A18DD083AAE
:10B6C00044FA82F494F850309B09032B0BD14FF0CD
:10B6D000A043D3F81015C14001F001010231BDE8CB
:10B6E0003840FFF707BF012B0CBF02210321F6E70B
:10B6F000D3B2072B1DD8930003F1804303F5C04359
:10B70000D3F8100540F00100C3F8100502F1400025
:10B7100040B2800080B2FFF7E1FE51B195F93030C0
:10B7200054F823302BB1012303FA02F2024BC3F881
:10B73000042338BDD4180020006000404FF0A0431F
:10B74000D3F8103523FA00F000F001007047000034
:10B750002DE9F74F00244E4D01944FF480720121E2
:10B7600002F1804303F5C04390B21B68012B06D160
:10B77000D5F804330B4202D0FFF7B0FE0C4304327D
:10B78000B2F5907F4FEA4101EAD1414BD3F87C31C9
:10B79000012B0CD14FF4BE70FFF7A0FE4FF0A04379
:10B7A00044F00044D3F820250192C3F82025E3B2E9
:10B7B000D3B1384F00250126344210D0AB0003F13D
:10B7C000804303F5C043D3F81005D3F8101557F89C
:10B7D000253023B1C1F30141C0F30420984701355E
:10B7E000082D4FEA4606E7D1002C48DA294D4FF0E4
:10B7F000A048294E4FF00009012716F9013B5A1CB9
:10B8000031D0C3F3C20202A90A44DCB212F8042CFC
:10B8100003F03F0A03F0070307FA03F31A4222D0AA
:10B820000AF5E073504658F82330C3F3014BBBF1DF
:10B83000020F0CBF03210221FFF75CFE07FA0AF397
:10B84000C8F8203505EB0A0393F9303055F823305A
:10B850004BB1A109032904D0BBF1020F12D1012978
:10B8600001D15046984709F10109B9F1040FC4D13B
:10B87000D8F820350193C8F82035002BB9D103B092
:10B88000BDE8F08FBBF1030FEDD10229E8E700BF5F
:10B8900000600040D418002024190020014B1B68D0
:10B8A000184700BF301900200E4B984237B50C46A0
:10B8B00002D0002003B030BD00230DF107008DF849
:10B8C0000730FEF71DFD084B1D7915B901221C60DC
:10B8D0001A719DF80700FEF737FD002DE9D0112001
:10B8E000E8E700BF0020004030190020034B9842D9
:10B8F00001BF034B00221A601A71704700200040FC
:10B90000301900200023435082B043580193019B1B
:10B9100002B070470A4610B54FF48E71FFF7F2FF80
:10B92000136A9168C95C136A01331362C0F81C156D
:10B9300010BD10B58B690A464FF4847123B9FFF727
:10B94000E1FFD0F8183510BDFFF7DCFF536AD1686E
:10B95000D0F81805C854536A01335362F3E7000066
:10B960001FB501238DF80030044BCDE90110D3E958
:10B9700000126846904705B05DF804FB38190020B6
:10B9800030B54E4DD5F804339A0585B051D5D5F86C
:10B990002431002B4DD04FF492712846FFF7B2FFAF
:10B9A0004FF40173C5F80833454B93F829200AB9C1
:10B9B00001226A60414902228DF80020D1F88024DA
:10B9C000C1F8802403929A690292DA6801920022F7
:10B9D000C3E906226846D3E9001290473748D0F8F9
:10B9E0001C315BB1364A5169136A99424ED992F8BB
:10B9F0002830002B4AD11146FFF78CFF2F48D0F892
:10BA00004431002B57D04FF4A271FFF77BFF2C4B32
:10BA100093F829200AB1012202609A69002A4AD0CB
:10BA2000586AD96800229A6105B0BDE83040FFF736
:10BA300097BFD5F804335B07D0D5D5F80831002B74
:10BA4000CCD01F4C1D482146FFF773FF636AA269E3
:10BA50009A42C3D1E36953B1A3612369E168E3600A
:10BA60000023606AE3616362FFF77AFFB6E794F848
:10BA700029300BB901236B60104B4FF40172C3F8EE
:10BA800008230023606AE168A361EDE70B484FF4E7
:10BA90008E71FFF737FF5369002BAFD051690291C8
:10BAA000002391688DF80030019153616846D2E916
:10BAB00000139847A2E705B030BD00BF002000404A
:10BAC000381900202DE9F8435A4E90F804802C23B1
:10BAD00003FB0863054693F82A300C469146002B79
:10BAE00040F0A48054490068FFF7DEFE07460028B6
:10BAF00040F09E802268501C0BD0012393404FF0F1
:10BB0000A0420321C2F80835236803F5E07342F828
:10BB100023106368591C1FBF03F5E0734FF0A04268
:10BB2000002142F823102B68A269C3F82425217D47
:10BB3000637D2A680B43C2F86C35D4E900122B6888
:10BB4000C3F81425C3F80C15237D012B1FD1A3685E
:10BB50005A1C1FBF4FF0A04203F5E073002142F8CA
:10BB60002310E268531C0BD0012393404FF0A042F6
:10BB70000321C2F80835E36803F5E07342F82310A7
:10BB8000D4E902122B68C3F80825C3F810152C233A
:10BB900003FB08F3F218C2F804902269F250B9F1DD
:10BBA000000F30D02868247F244A4FF48E71FFF7AD
:10BBB000A9FE4FF4A2712868FFF7A4FE2B68C3F812
:10BBC00004232A68110B42F30732002AAEBF02F1A8
:10BBD00060421B4A01F00F014FEA4413DBB2AABFD7
:10BBE00002F56142535482F800332A68130B42F382
:10BBF0000732002A07DB03F01F0101238B405209A3
:10BC0000104941F822302B680422C3F800252C2368
:10BC100003FB08630022C3E9062283F829205A6146
:10BC2000012283F82A203846BDE8F8830827FAE77E
:10BC30001127F8E73819002081B9010080000200BF
:10BC400014ED00E000E100E0F8B503680579324C3E
:10BC50000022C3F800252C2303FB05435B68B3B126
:10BC600003682E4AC3F8082303681A0B43F307330B
:10BC7000002B0CDB02F01F015B0901228A402033FC
:10BC8000274941F82320BFF34F8FBFF36F8F03681D
:10BC90004FF0FF3CD3F80C75D3F81465D3F80825A2
:10BCA000D3F81015C3F814C5C3F80CC5036867456D
:10BCB000C3F808C518BF07F5E077C3F810C51EBF65
:10BCC0004FF0A0434FF0020C43F827C0771C1FBF72
:10BCD0004FF0A04306F5E076022743F826704E1C8D
:10BCE0001FBF01F5E0714FF0A043022643F8216029
:10BCF000531C1FBF4FF0A04302F5E072022143F82E
:10BD000022100068FFF7F2FD2C2303FB05440023FB
:10BD100084F82A306360F8BD3819002084020200DC
:10BD200000E100E00279044B2C2101FB0233586949
:10BD3000003818BF01207047381900202DE9F84F4E
:10BD4000064690F8048089469246FFF7EBFF0446CA
:10BD500000283DD1204F2C2508FB057B4FF48E7128
:10BD6000CBF814A0CBF80890CBF820008BF8280073
:10BD70003068FFF7C7FD336801229A603068594682
:10BD8000FFF7C8FDDBF804305D461BBB3068DBF80D
:10BD900014402B6A9C4211D83368D3F81C21002A26
:10BDA000FBD00122DA6000202C2303FB087700235C
:10BDB0007B61BDE8F88F95F828303BB9D0F81C318D
:10BDC000002BF8D05946FFF7A5FDE2E70F20EBE77F
:10BDD0001120EEE72046ECE73819002000234350FD
:10BDE00082B043580193019B02B070471FB50123F5
:10BDF0008DF80030044BCDE90110D3E900126846FC
:10BE0000904705B05DF804FB641900207FB5434AF4
:10BE1000D2F82461002E60D010464FF49271FFF7E3
:10BE2000DDFF02238DF80030D2F88034C2F8803470
:10BE30000393D2F83C350293394BDA680192002221
:10BE4000C3E906226846D3E9001290473348D0F888
:10BE5000443173B14FF4A271FFF7C0FF304B9A69C0
:10BE60003AB10022C3E90622D968D0F83C05FFF7B1
:10BE7000BDFF2A48D0F82031ABB14FF49071FFF7E5
:10BE8000ADFF0123C360264B5A6962B1D0F84C154F
:10BE90000291002299688DF8002001915A6168464C
:10BEA000D3E9001290471D48D0F858319BB14FF4A8
:10BEB000AC71FFF793FF1A4B5A6962B1D0F84C1579
:10BEC0000291002299688DF8002001915A6168461C
:10BED000D3E90012904704B070BDD2F81031002BA6
:10BEE000B4D04FF488711046FFF778FF0C4BD2F8AE
:10BEF0003C0599698842A9D1DC69D96864B1D2F856
:10BF0000005225F02005C2F800521A699C61DA60DF
:10BF1000DE61FFF76BFF99E79C61FAE700200040C4
:10BF2000641900202DE9F843614E90F80480242321
:10BF300003FB0863054693F820300C469146002B1E
:10BF400040F0B1805B490068FFF7AEFC074600286F
:10BF500040F0AB802268501C0BD0012393404FF07F
:10BF6000A0420321C2F80835236803F5E07342F8C4
:10BF700023106368591C1FBF03F5E0734FF0A04204
:10BF8000002142F823102B68A269C3F82425217DE3
:10BF9000637D2A680B43C2F86C35D4E900212B6815
:10BFA000C3F80C25C3F81415237D012B1FD1A368FA
:10BFB0005A1C1FBF4FF0A04203F5E073002142F866
:10BFC0002310E268531C0BD0012393404FF0A04292
:10BFD0000321C2F80835E36803F5E07342F8231043
:10BFE000D4E902122B68C3F80825C3F810152423DE
:10BFF00003FB08F3F218C2F804902269F250B9F179
:10C00000000F3FD02868227F4FF48871FFF7E6FECB
:10C0100028684FF49071FFF7E1FE28684FF49271A1
:10C02000FFF7DCFE28684FF4A271FFF7D7FE4FF44C
:10C03000AC712868FFF7D2FE2B681F49C3F80413C0
:10C040002B68190B43F30733002BAEBF03F160439A
:10C050001A4B01F00F014FEA4212D2B2AABF03F508
:10C0600061435A5483F800232B681A0B43F30733B8
:10C07000002B07DB02F01F0101228A405B091049F7
:10C0800041F823202B680822C3F80025242303FB52
:10C0900008660023C6E906337361012386F8203061
:10C0A0003846BDE8F8830827FAE71127F8E700BF0C
:10C0B000641900200DBE01001003420014ED00E0E1
:10C0C00000E100E0F8B5444C0579242303FB054367
:10C0D00002465B680068ABB1404BC0F80833136898
:10C0E000190B43F30733002B0CDB01F01F065B0930
:10C0F0000121B14020333A4E46F82310BFF34F8F51
:10C10000BFF36F8FD0F8003223F02003C0F8003265
:10C11000242303FB05439B692BB14FF4A271FFF766
:10C120005DFE012343604FF4AC71FFF757FE01231E
:10C13000C360242303FB0543D0F858110029FBD02A
:10C14000996919B1D0F844110029F5D00023C0F83D
:10C15000003513684FF0FF3ED3F80CC5D3F81475C3
:10C16000D3F80815D3F81065C3F80CE5C3F814E547
:10C170001368F445C3F808E518BF0CF5E07CC3F874
:10C1800010E51EBF4FF0A043022243F82C207B1C79
:10C190001FBF4FF0A04307F5E077022243F82720A6
:10C1A000721C1FBF06F5E0764FF0A043022243F851
:10C1B00026204B1C1FBF4FF0A04301F5E071022267
:10C1C00043F82120FFF792FB242303FB05440023BF
:10C1D00084F820306360F8BD641900201003420029
:10C1E00000E100E00279044B242101FB023358698D
:10C1F000003818BF012070476419002001F0604327
:10C20000B3F1005F2DE9F0470546884692463ED1DE
:10C2100090F80490FFF7E6FF0446002839D11F4F3D
:10C22000242606FB09764FF49071C6F814A0C6F8D0
:10C2300008802868FFF7D2FD4FF4AC712868FFF73B
:10C24000CDFD2B687269B168C3F84415C3F8482561
:10C250002B6801229A607368EBB92B68D3F8202110
:10C26000D3F858011AB90028F8D00F2008E00028A8
:10C27000FBD10122DA602A68D2F85831002BFBD0BA
:10C28000242303FB097700237B61BDE8F08710209E
:10C29000FBE71120F9E72046F7E700BF641900200B
:10C2A0000220FEF765BF00002DE9F04780460D46ED
:10C2B000FEF770FF0328044610D8012D10D0022D80
:10C2C00030D05DB91A48FDF744FF1A4B04EB440225
:10C2D00013449D78184B1B5DAB4219D0BDE8F08725
:10C2E000144E00EB4003F218F55C5378470053B14D
:10C2F000DFF848900E484A464FF48041FDF711FFA1
:10C3000008B989F8008027443E440B4BB2781A558F
:10C31000002DE3D00A4B1B68002BDFD02846BDE878
:10C32000F047184700EB4004024804446578EFE703
:10C33000B0190020F0190020091A002088190020E7
:10C34000041A002000780221FFF7AEBF08B5094BA0
:10C350001B7853B10020FEF7E1FE0120FEF7DEFE60
:10C36000BDE808400320FEF7D9BEBDE80840FEF74F
:10C37000E1BE00BF89190020F8B57A4C2378054644
:10C380001BB100232370FFF7E1FF172D00F2878018
:10C39000DFE805F00C1717425364757F878C878C94
:10C3A000949999999999C3C8D0D8E3E3FFF7CEFF40
:10C3B0006D48FDF7CEFE6D4B002204461A702046F4
:10C3C000F8BD0020FEF790FEF0B10020FEF7A6FEBB
:10C3D000022D0CBF4FF4E1644FF47A64634B1D707F
:10C3E00000254FF400464FF47A7029464FF4FA6264
:10C3F0000023E4FB060100F049FE2A460146BDE8A1
:10C40000F8405948FDF78DBEFEF77CFE022D0CBFAB
:10C41000C8244FF4C874E1E70020FEF765FE40B180
:10C420000020FEF77BFE4FF44874504B03221A7035
:10C43000D6E7FEF767FEC824F7E70020FEF754FEB4
:10C4400038B10020FEF76AFE4FF47A64474B0422AD
:10C45000EDE7FEF757FE4FF4C874F7E70020FEF74C
:10C4600043FE48B10020FEF759FE404B05221A70EA
:10C4700040F6CD410022C2E7FEF744FEF5E700207A
:10C48000FEF776FE394B06221A70002240F26661F2
:10C49000B5E70020FEF736FE344B07221A70002461
:10C4A0008DE701202070FEF763FEEEE7012020708B
:10C4B000FEF75EFE00224FF40051A0E7FEF749FEB2
:10C4C0002A4B0C22EAE72A482A4EFDF742FED5F114
:10C4D000110504461CD0D8B9012D13D0C8204543FE
:10C4E00021464FF400474FF47A704FF4FA6200236C
:10C4F000C5FB070100F0CAFD224601461C48FDF7B6
:10C5000010FE04460220FEF7FDFD0123337056E7BE
:10C510000220FEF703FE0023F8E7FFF717FF134B97
:10C520001222BBE7FFF712FF0020FEF7EBFD0F4BD7
:10C530001322B3E7FFF70AFF0120FEF7E3FD0B4BE1
:10C540001422ABE7FFF702FF0020FEF7DBFD01201E
:10C55000FEF7D8FD054B1522A0E7FEF7FAFD034BC9
:10C560001D709CE7001A0020D0190020081A002036
:10C570009019002089190020044B1B68DB0703D5A4
:10C58000034B1878FFF7F8BE704700BFFC19002076
:10C59000081A0020044B1B6813F0010301D0FFF7B9
:10C5A000EBBE1846704700BFFC19002038B51C4B85
:10C5B00018601C4B10F00204054619601AD01A4B83
:10C5C0001A480E221A700F22DA7010229A71112264
:10C5D0005A72042140F23332FDF73AFC044648B95E
:10C5E000FDF78EFC044628B90146114A1148FDF7B3
:10C5F0008DFD0446EB0711D50120FEF7DDFD6CB97A
:10C6000021460D4A0D48FDF781FD044630B9BDE8CD
:10C6100038400B4A0B480121FDF778BD204638BD54
:10C62000FC190020041A0020F0190020A8DA0100EB
:10C6300045C30100CCDA010079C50100D0DA010060
:10C64000A1C20100C8DA010072DF704773DF7047D2
:10C6500000B54FF4804193B00020FCF7E9FF08B12A
:10C66000FDF764FCFCF724FFFDF71EFD08B1FDF7A4
:10C670005DFC00210120FFF799FF08B1FDF756FC92
:10C68000FEF76AFB08B1FDF751FC00F001FB08B1B1
:10C69000FDF74CFC002303A90120039300F084FB69
:10C6A00008B1FDF743FC03A800F02CFC08B1FDF72E
:10C6B0003DFC5923284CADF80030284B029300254F
:10C6C00017233C22002103A8ADF8043000F0CCFC75
:10C6D00004231822294620468DF80F308DF80C507F
:10C6E000CDF830D000F0C0FC1D4A656005232370F2
:10C6F00052F8041B2575A02303A8A360A58100F0B0
:10C70000B3F808B1FDF712FC134A15491548FFF7B5
:10C710009BFF08B1FDF70AFC134B14481449C01ADB
:10C72000C008000440F00300FDF71CF90D4B012187
:10C730001878FFF78BFF08B1FDF7F8FB0220FFF731
:10C7400029FF08B1FDF7F2FBFCF7C2FF0028FBD17F
:10C75000FEF718FBF8E700BF101A00205111002067
:10C760004011002050110020B8DE0100E0DE010081
:10C77000D4DA01006DDF704779DF70477DDF7047E5
:10C7800064DF70472DE9F04F85B000250E9CBDF8A1
:10C790003CB0B4F800A00191074690461E46A94659
:10C7A0003A884A450DDC45B12388013BA3EB0A03D7
:10C7B0009BB2FF2B3AD806F80A30002005B0BDE83E
:10C7C000F08F7A6852F82900039000220DF10B01D6
:10C7D00003A8FFF7D5FF0028F0D19DF80B204245B4
:10C7E00021D12288002D14BF0020022002EB080175
:10C7F000014459451ADC3DB9013292B2019B2280B5
:10C80000B35422880132228022880DF10B01324478
:10C8100003A8FFF7B5FF0028D0D121889DF80B2091
:10C820000A442280012509F10109B9E70C20C5E776
:10C830002DE9F341089FBDF824801546CDE9007825
:10C84000022204461E46FFF79DFF50B933461022D0
:10C8500029462046CDE9087802B0BDE8F041FFF74F
:10C8600091BF02B0BDE8F0812DE9F04F0023178899
:10C87000138090F82D3085B006460D46144653B30C
:10C88000082F01D80C2027E102A8FFF773FF00282A
:10C8900040F0228123880822EA54238801339BB286
:10C8A0001B222380EA542088013080B22080062297
:10C8B0000DF10901284400F0C9FB23889DF80820E8
:10C8C00006339BB212F0FE0218BF01222380EA5405
:10C8D000238801332380B378FBB123880433BB4220
:10C8E000D0D802A8FFF748FF002840F0F580238841
:10C8F0000322EA54238801339BB219222380EA548D
:10C900002388BDF8082001339BB2E9182380EA543C
:10C91000120A4A70238802332380F2789AB123885E
:10C92000D91CB942AED80221E954238801339BB205
:10C9300001212380E95423880B449BB22380EA54CD
:10C9400023880B4423807268AAB12388D91CB9427A
:10C9500098D8022192F90020E954238801339BB230
:10C960000A212380E954238801339BB22380EA54AF
:10C970002388013323803389002B40F0A180338A40
:10C980005BB1CDE900472B460722032106F11000D9
:10C99000FFF74EFF002840F09F80338B5BB1CDE95D
:10C9A00000472B461522142106F11800FFF740FF1F
:10C9B000002840F09180326A002A40F09080D6F83A
:10C9C0002480B8F1000F30D0B8F804302188981CCA
:10C9D0008A1C0244BA423FF655AFFE283FF652AFDA
:10C9E00003336B54238801339BB2FF222380EA5424
:10C9F000238801339BB22380B8F80020EA54E91859
:10CA0000120A4A702088023080B22080B8F80420D0
:10CA10005AB1D8F8081000296BD0284400F016FB52
:10CA20002388B8F804201344238096F82C30002B78
:10CA300040F09880307800284ED03388012B58D0B1
:10CA4000228802F1020CBC453FF61CAF012805D13B
:10CA50007378023313449F42FFF414AF023FBF1AAE
:10CA6000BFB202A905EB0C00ADF80870FFF786FE17
:10CA700090BB3178BDF80830022900F0B980727897
:10CA80009A4202D39F4280F0B180012940F0B280E7
:10CA9000974293B2C0F0AE80ADF808300821BDF8DF
:10CAA0000830FE2B3FF6EEAE22880133AB542288CD
:10CAB000013292B22280A9542288134423800BE0D1
:10CAC000CDE900472B460622022106F10800FFF7B8
:10CAD000AFFE00283FF453AF05B0BDE8F08FB4F8C7
:10CAE00000C00CF10603BB423FF6CCAE118805290D
:10CAF00001D80720F0E76FF4486E01EB0E039BB2FC
:10CB00004FF27D3E7345F4D95388052BF1D96FF46C
:10CB10004860181880B27045EBD94FF6FF7081421B
:10CB200001D09942E5D8052305F80C30238801335C
:10CB30009BB212212380E954238801339BB22380C6
:10CB40001188E954E818090A4170238802339BB21E
:10CB500023805288EA54E918120A4A702388023363
:10CB600023802CE7B36A002BC3D04FF000084FF0AE
:10CB70000C0A4FF0160BB16A5FFA88F20AFB02F258
:10CB800001EB0209B9F80430981CFE283FF67AAE92
:10CB9000208803332B54238801339BB2238005F86C
:10CBA00003B0238801339BB223808A5AEA54E918E0
:10CBB000120A4A702088023080B22080B9F804201E
:10CBC0005AB1D9F80810002993D0284400F03EFA51
:10CBD0002388B9F804201344238096F82C2008F108
:10CBE00001085FFA88F39A42C5D823E7092156E77E
:10CBF0009F42FBD2ADF8087050E710DF704700008D
:10CC000013B5044609496846FEF7D6F8019808B9F5
:10CC100002B010BDD0E900312046984718B16846EF
:10CC2000FEF7D3F8F2E71120F2E700BFF8DA0100CF
:10CC300013B5044607496846FEF7BEF8019B0BB9D9
:10CC400002B010BD2046D3E9002190476846FEF7A8
:10CC5000BCF8F3E710DB01000B4991F816335A09D1
:10CC6000EC231341DB0706D5084B9A683AB94FF419
:10CC700080030B60704742F20200FDF757B91A6853
:10CC800042F480021A60704700E100E0841800203E
:10CC9000F7B5194F3C7864BB184E01252046357016
:10CCA000FFF7AEFF112821D02046FFF7C1FF144B3C
:10CCB0008DF80340186801900DF10300FDF720FB8B
:10CCC000104901A8FFF799FF0446B0FA80F0400927
:10CCD00038709DF80300FDF737FB3CB90A4B347000
:10CCE0001C70FFF7B9FF2846FFF7A2FF204603B0EC
:10CCF000F0BD0824FAE700BF481A0020471A0020B8
:10CD0000F4DA0100499F0100491A0020014B18780C
:10CD1000704700BF481A002007B508496846FEF76B
:10CD20004BF8019B13B903B05DF804FBD3E9002075
:10CD300090476846FEF749F8F3E700BF04DB0100BF
:10CD4000FFF7EABF60DF704769DF704761DF704758
:10CD500030B5134B1B7891B0FBB1124D34240DF15B
:10CD6000020103A8ADF80240FFF7F0FF70B92946B1
:10CD700001A8FEF721F8029B002BF0D003A8D3E90D
:10CD80000021904701A8FEF720F8F4E7052804D019
:10CD900011B0BDE83040FDF7C9B811B030BD00BFDB
:10CDA0004A1A002054DD010030B5054685B00C4616
:10CDB000002900F095804B4B0B600C22002101A84C
:10CDC00000F052F901238DF8063022688DF80450E6
:10CDD000062301A92020ADF80830FFF7B5FF60B1A8
:10CDE000FEF744F8404B4149024641481B1ADB0814
:10CDF0001B0443F00100FCF7B9FD0C22002101A83F
:10CE000000F032F9002322688DF8053001A9402096
:10CE1000FFF79AFF60B1FEF729F8334B3549024618
:10CE200033481B1ADB081B0443F00100FCF79EFD8E
:10CE30000C22002101A800F017F9002322688DF8C8
:10CE4000043001A90120FFF77FFF60B1FEF70EF863
:10CE5000254B2949024626481B1ADB081B0443F0D0
:10CE60000100FCF783FD0C22002101A800F0FCF872
:10CE7000F8232268019301A9A120FFF765FF60B1A3
:10CE8000FDF7F4FF184B1D49024619481B1ADB0831
:10CE90001B0443F00100FCF769FD0C22002101A8EE
:10CEA00000F0E2F89DF8043022686FF3000301A956
:10CEB000A0208DF80430FFF747FF034668B1FDF767
:10CEC000D5FF094B0E49024609481B1ADB081B0413
:10CED00043F00100FCF74AFD0023184605B030BDC1
:10CEE0000E23FAE71811002008DF01001CDB010007
:10CEF000B8DE010062DB0100AEDB0100FADB0100FD
:10CF00004BDC0100F8B506460768FFF71BFF3368E6
:10CF1000BB4205461DD91948194C1A49241AE40880
:10CF2000240444F002042046FCF71CFD3368164933
:10CF30003A462046FCF723FD4FF080533268D3F881
:10CF40000C3112499B0203F100539A1A2046FCF758
:10CF50000DFD25B90E4B01221A702846F8BD284652
:10CF6000FDF784FF064B0B49024604481B1ADB08F9
:10CF70001B0443F00100FCF7F9FCEEE7B8DE01000A
:10CF800008DF01009EDC0100CDDC0100FEDC0100B9
:10CF90004A1A002028DD01004BDF70471FB50E4CF8
:10CFA00001A8FFF7F9FF70B9214602A8FDF704FFB9
:10CFB000039B002BF4D00198D3E90021904702A8ED
:10CFC000FDF703FFF4E7052804D004B0BDE81040E6
:10CFD000FCF7ACBF04B010BD6CDD010008B5074B19
:10CFE000044613B10021AFF30080054B1868836A33
:10CFF00003B19847204600F047F800BF000000004A
:10D000007CDE010070B50D4D0D4C641BA410002694
:10D01000A64209D10B4D0C4C00F0BAF9641BA410C8
:10D020000026A64205D170BD55F8043B984701364D
:10D03000EEE755F8043B98470136F2E7C8110020A7
:10D04000C8110020C8110020CC1100200A449142D0
:10D0500000F1FF3300D1704710B511F8014B03F810
:10D06000014F9142F9D110BD02440346934200D1D1
:10D07000704703F8011BF9E7034613F8012B002A58
:10D08000FBD1181A01387047FEE700BF53B94AB9FF
:10D09000002908BF00281CBF4FF0FF314FF0FF30C0
:10D0A00000F074B9ADF1080C6DE904CE00F006F89B
:10D0B000DDF804E0DDE9022304B070472DE9F04714
:10D0C000089E0D4604468846002B4DD18A42944660
:10D0D00068D9B2FA82F252B101FA02F3C2F1200128
:10D0E00020FA01F10CFA02FC41EA030894404FEAED
:10D0F0001C45210CB8FBF5FE1FFA8CF705FB1E83BF
:10D1000041EA03430EFB07F199420BD91CEB0303E1
:10D110000EF1FF3080F01E81994240F21B81AEF18A
:10D12000020E63445B1AA4B2B3FBF5F005FB1033A7
:10D1300044EA034400FB07F7A7420AD91CEB0404A6
:10D1400000F1FF3380F00881A74240F2058164447A
:10D150000238E41B40EA0E4000211EB1D4400023F7
:10D16000C6E90043BDE8F0878B4208D9002E00F0E5
:10D17000EE800021C6E900050846BDE8F087B3FA55
:10D1800083F100294AD1AB4202D3824200F2F980F6
:10D19000841A65EB030301209846002EE2D0C6E90D
:10D1A0000048DFE702B9FFDEB2FA82F2002A40F05F
:10D1B0009180A1EB0C054FEA1C471FFA8CFE012160
:10D1C000B5FBF7F307FB1350250C45EA00450EFBB2
:10D1D00003F0A84208D91CEB050503F1FF3802D281
:10D1E000A84200F2CB8043462D1AA4B2B5FBF7F05B
:10D1F00007FB105544EA05440EFB00FEA64508D97E
:10D200001CEB040400F1FF3502D2A64500F2BB80FE
:10D210002846A4EB0E0440EA03409EE7C1F1200734
:10D220008B4022FA07FC4CEA030C20FA07F405FABB
:10D2300001F31C43FD404FEA1C4900FA01F3B5FB22
:10D24000F9F8200C1FFA8CFE09FB185540EA054539
:10D2500008FB0EF0A84202FA01F20BD91CEB0505FF
:10D2600008F1FF3A80F08880A84240F28580A8F15A
:10D27000020865442D1AA4B2B5FBF9F009FB10555C
:10D2800044EA054500FB0EFEAE4508D91CEB05053A
:10D2900000F1FF346CD2AE456AD90238654440EAE9
:10D2A0000840A0FB0294A5EB0E05A542C846A64681
:10D2B00056D353D05EB1B3EB080265EB0E0505FA09
:10D2C00007F722FA01F3CD401F43C6E9007500219C
:10D2D000BDE8F087C2F1200320FA03F10CFA02FC4A
:10D2E00025FA03F395400D434FEA1C471FFA8CFEC5
:10D2F000B3FBF7F107FB11302B0C43EA004301FBB2
:10D300000EF0984204FA02F408D91CEB030301F171
:10D31000FF382FD298422DD9023963441B1AADB27F
:10D32000B3FBF7F007FB103345EA034500FB0EF3B0
:10D33000AB4208D91CEB050500F1FF3816D2AB4211
:10D3400014D902386544ED1A40EA014138E7314604
:10D35000304607E78646E5E61846FAE64B45A9D289
:10D36000B9EB020864EB0C0E0138A3E74046EAE78C
:10D37000204694E74146D1E7D0467BE7023B65442F
:10D3800032E7084609E76444023842E7704700BFC5
:10D39000F8B500BFF8BC08BC9E467047F8B500BFA2
:10D3A000F8BC08BC9E467047FFFFFFFFFFFFFFFF72
:10D3B000FFFFFFFFFFFFFFFF000000000000000075
:10D3C0000000D60106010000199401007D940100BF
:10D3D000C9930100756172745F6C6F675F6261630E
:10D3E0006B656E64004261636B656E647320666C8E
:10D3F000757368656400617070000000201700207C
:10D400007F000000A01700201B5B313B33316D0013
:10D4100025734C6F67732064726F70706564202889
:10D4200025642925730D0A001B5B306D00257300F0
:10D430003C25733E2025733A2000202530327800A9
:10D44000202020007C002563001B5B313B33306DC6
:10D45000001B5B313B33326D001B5B313B33336D63
:10D46000001B5B313B33346D001B5B313B33356D4F
:10D47000001B5B313B33366D001B5B313B33376D3B
:10D48000007761726E696E6700696E666F00646531
:10D490006275670028D4010049D4010008D4010056
:10D4A00051D4010059D4010061D4010069D40100B4
:10D4B00071D4010079D4010000000000E2D4010021
:10D4C00081D4010089D401008ED401006170705FA5
:10D4D000627574746F6E0000C0170020466174613D
:10D4E0006C206572726F720053797374656D20726F
:10D4F00065736574006170705F74696D65720000BA
:10D500000100060000000000FC170020B59F01008C
:10D5100052544320696E7374616E636520616C724E
:10D520006561647920696E697469616C697A6564A2
:10D530002E005254433A20696E697469616C697AAD
:10D5400065642E00000000000000000000000000E4
:10D550000338FDD8704730313233343536373839F7
:10D560004142434445467077725F6D676D740000B9
:10D570008CDE01008CDE010004000000736F727409
:10D580006C697374004E52465F5355434345535381
:10D59000004E52465F4552524F525F5356435F48CA
:10D5A000414E444C45525F4D495353494E47004EFE
:10D5B00052465F4552524F525F534F465444455670
:10D5C0004943455F4E4F545F454E41424C454400F0
:10D5D0004E52465F4552524F525F494E5445524E4D
:10D5E000414C004E52465F4552524F525F4E4F5F84
:10D5F0004D454D004E52465F4552524F525F4E4F81
:10D60000545F464F554E44004E52465F4552524F6E
:10D61000525F4E4F545F535550504F525445440043
:10D620004E52465F4552524F525F494E56414C4909
:10D63000445F504152414D004E52465F4552524F59
:10D64000525F494E56414C49445F53544154450042
:10D650004E52465F4552524F525F494E56414C49D9
:10D66000445F4C454E475448004E52465F45525227
:10D670004F525F494E56414C49445F464C414753D7
:10D68000004E52465F4552524F525F494E56414CF2
:10D6900049445F44415441004E52465F4552524F07
:10D6A000525F444154415F53495A45004E52465FD0
:10D6B0004552524F525F54494D454F5554004E52BA
:10D6C000465F4552524F525F4E554C4C004E5246AB
:10D6D0005F4552524F525F464F5242494444454E75
:10D6E000004E52465F4552524F525F494E56414C92
:10D6F00049445F41444452004E52465F4552524FA6
:10D70000525F42555359004E52465F4552524F5256
:10D710005F434F4E4E5F434F554E54004E52465F4F
:10D720004552524F525F5245534F55524345530055
:10D730004E52465F4552524F525F4D4F44554C45F5
:10D740005F4E4F545F494E495449414C495A4544F4
:10D75000004E52465F4552524F525F4D5554455808
:10D760005F494E49545F4641494C4544004E52463C
:10D770005F4552524F525F4D555445585F4C4F4391
:10D780004B5F4641494C4544004E52465F4552521C
:10D790004F525F4D555445585F554E4C4F434B5F6C
:10D7A0004641494C4544004E52465F4552524F5205
:10D7B0005F4D555445585F434F4E445F494E495461
:10D7C0005F4641494C4544004E52465F4552524FD8
:10D7D000525F4D4F44554C455F414C524541445971
:10D7E0005F494E495449414C495A4544004E5246BE
:10D7F0005F4552524F525F53544F524147455F4627
:10D80000554C4C004E52465F4552524F525F41506C
:10D81000495F4E4F545F494D504C454D454E544520
:10D8200044004E52465F4552524F525F4645415466
:10D830005552455F4E4F545F454E41424C45440062
:10D840004E52465F4552524F525F494F5F50454ED0
:10D8500044494E47004E52465F4552524F525F4434
:10D8600052565F5457495F4552525F4F5645525288
:10D87000554E004E52465F4552524F525F445256EB
:10D880005F5457495F4552525F414E41434B004EF2
:10D8900052465F4552524F525F4452565F54574969
:10D8A0005F4552525F444E41434B004E52465F45E6
:10D8B00052524F525F424C455F495053505F52584D
:10D8C0005F504B545F5452554E4341544544004EB3
:10D8D00052465F4552524F525F424C455F4950534A
:10D8E000505F4348414E4E454C5F414C5245414488
:10D8F000595F455849535453004E52465F45525262
:10D900004F525F424C455F495053505F4C494E4B1C
:10D910005F444953434F4E4E4543544544004E5295
:10D92000465F4552524F525F424C455F49505350FB
:10D930005F504545525F52454A4543544544005562
:10D940006E6B6E6F776E206572726F7220636F649C
:10D95000650000000000000085D501000100000006
:10D9600091D5010002000000AFD5010003000000C6
:10D97000D0D5010004000000E3D50100050000003F
:10D98000F4D501000600000008D6010007000000E1
:10D9900020D601000800000038D601000900000070
:10D9A00050D601000A00000069D601000B000000FB
:10D9B00081D601000C00000098D601000D00000087
:10D9C000ACD601000E000000BED601000F00000022
:10D9D000CDD6010010000000E1D6010011000000CA
:10D9E000F8D601001200000007D701001300000064
:10D9F0001CD701008000000030D70100810000002A
:10DA000051D70100820000006DD7010083000000A3
:10DA100089D7010084000000A7D70100850000001D
:10DA2000C8D7010086000000EDD70100900000007B
:10DA300004D801009100000022D8010092000000EB
:10DA400040D801000082000055D80100018200008A
:10DA500073D80100028200008FD80100008400000A
:10DA6000ABD8010001840000CFD80100028400007F
:10DA7000F9D80100038400001ED901000100000054
:10DA80000D0E0F10636C6F636B00434C4F434B00E4
:10DA90004750494F5445005052530055415254008D
:10DAA00055415254450000000B000300A9C201007B
:10DAB0000C000300A9C2010018000300A9C2010064
:10DAC00019000300A9C2010090190020B01900201C
:10DAD000D0190020426561636F6E206578616D70BA
:10DAE0006C6520737461727465642E006E72665F7B
:10DAF00073646800010000078CDE01008CDE010009
:10DB00000800000094DE0100A4DE0100080000000F
:10DB10008CDE010094DE01000800000073645F6287
:10DB20006C655F6366675F7365742829207265742E
:10DB300075726E6564202573207768656E20617448
:10DB400074656D7074696E6720746F2073657420DE
:10DB5000424C455F434F4E4E5F4346475F474150FF
:10DB60002E0073645F626C655F6366675F736574E4
:10DB700028292072657475726E656420257320777C
:10DB800068656E20617474656D7074696E67207469
:10DB90006F2073657420424C455F4741505F434698
:10DBA000475F524F4C455F434F554E542E007364B0
:10DBB0005F626C655F6366675F73657428292072B6
:10DBC000657475726E6564202573207768656E20B4
:10DBD000617474656D7074696E6720746F2073650D
:10DBE0007420424C455F434F4D4D4F4E5F43464777
:10DBF0005F56535F555549442E0073645F626C65F0
:10DC00005F6366675F736574282920726574757237
:10DC10006E6564202573207768656E206174746575
:10DC20006D7074696E6720746F2073657420424C48
:10DC3000455F47415454535F4346475F41545452F4
:10DC40005F5441425F53495A452E0073645F626CD2
:10DC5000655F6366675F73657428292072657475F4
:10DC6000726E6564202573207768656E2061747418
:10DC7000656D7074696E6720746F207365742042DF
:10DC80004C455F47415454535F4346475F534552A9
:10DC9000564943455F4348414E4745442E00496E2F
:10DCA00073756666696369656E742052414D2061C3
:10DCB0006C6C6F636174656420666F722074686554
:10DCC00020536F66744465766963652E004368610E
:10DCD0006E6765207468652052414D2073746172CF
:10DCE00074206C6F636174696F6E2066726F6D2053
:10DCF0003078257820746F20307825782E004D619B
:10DD000078696D756D2052414D2073697A65206682
:10DD10006F72206170706C69636174696F6E2069E5
:10DD20007320307825782E0073645F626C655F65C0
:10DD30006E61626C6528292072657475726E656407
:10DD40002025732E006E72665F7364685F626C6577
:10DD5000000000008CDE01008CDE010008000000E5
:10DD60006E72665F7364685F736F630084DE0100C8
:10DD70008CDE010008000000002020202020202050
:10DD8000202028282828282020202020202020206B
:10DD9000202020202020202020881010101010107B
:10DDA00010101010101010101004040404040404C7
:10DDB0000404041010101010101041414141414161
:10DDC0000101010101010101010101010101010143
:10DDD0000101010110101010101042424242424253
:10DDE0000202020202020202020202020202020213
:10DDF00002020202101010102000000000000000BB
:10DE00000000000000000000000000000000000012
:10DE10000000000000000000000000000000000002
:10DE200000000000000000000000000000000000F2
:10DE300000000000000000000000000000000000E2
:10DE400000000000000000000000000000000000D2
:10DE500000000000000000000000000000000000C2
:10DE600000000000000000000000000000000000B2
:10DE70000000000000000000000000006811002009
:04DE8000000000009E
:08DE840039B2010000000000AA
:08DE8C00D5B201000000000006
:10DE940051CD0100000000009DCF010000000000F2
:10DEA40030120020F8120020001300203812002045
:04DEB4001800000052
:10DEB8008ADA01000000000090DA0100000000008A
:10DEC80097DA0100000000009BDA01000000000062
:10DED800A0DA010000000000F6D3010000000303EF
:10DEE800CCD4010000000000F5D4010000000000BF
:10DEF80084DA010000000000ECDA010000000303EE
:10DF080045DD01000000030360DD0100000003039C
:10DF180066D50100000000007CD50100000000006B
:10DF2800C8D3010000000000D4D301002C11002048
:08DF380008B3FF7F01000000A7
:10DF40000000000000200040000000000020004011
:10DF50000000000000000000FF0000000010014071
:10DF6000110004000090D003281A00201F000000B8
:10DF70000000000000000000FF02150112233445DC
:10DF8000566778899AABBCCDDEEFF001020304C37B
:10DF90000000000000000000000000000000000081
:10DFA0000000000000000000000000000000000071
:10DFB0000000000000000000000000000000000061
:10DFC0000000000000000000000000000000000051
:10DFD0000000000000000000000000000000000041
:10DFE0000000000000000000000000000000000031
:08DFF0002592010001920100DD
:04000003100092BD9A
:00000001FF
